S016000055415254204241534544204341522E737265635D
S11300000C942A000C9447000C9447000C9447006D
S11300100C9447000C9447000C9447000C94470040
S11300200C9447000C9447000C9447000C94470030
S11300300C9447000C9447000C9447000C94470020
S11300400C9447000C9447000C9447000C94470010
S11300500C94470011241FBECFE5D4E0DEBFCDBF12
S113006010E0A0E6B0E0E8ECF2E002C005900D92EA
S1130070A039B107D9F710E0A0E9B0E001C01D92A2
S1130080A039B107E1F70E94E9000C9462010C94D5
S113009000005D9BFECF8CB90895982F907F95BB8F
S11300A095B39C7F95BBAA9AEFE0F7E23197F1F7FD
S11300B000C00000AA98EFE0F7E23197F1F700C022
S11300C0000090E082959295907F9827807F9827F2
S11300D085BB85B38C7F85BBAA9A8FE097E2019795
S11300E0F1F700C00000AA98EFE0F7E23197F1F7CA
S11300F000C000000895CF93DF93CDE4D0E082E008
S113010090E0FE01099588E290E0FE0109958EE0F9
S113011090E0FE010995DF91CF910895982F907F8B
S113012095BBA89AA998AA9AEFE0F7E23197F1F75C
S113013000C00000AA98EFE0F7E23197F1F700C0A1
S1130140000090E082959295907F9827807F982771
S113015085BBA89AA998AA9A8FE097E20197F1F72C
S113016000C00000AA98EFE0F7E23197F1F700C071
S113017000000895CF93DF93EC018881882331F048
S113018021960E948E0089918823D9F7DF91CF911F
S11301900895CF93DF93EC018881882339F0219669
S11301A090E00E94490089918823D1F7DF91CF9193
S11301B0089583E389B980B5846880BD8AB1886174
S11301C08AB908955F9BFECF8CB1089587E48CB9FA
S11301D008958FEF8ABB15BA84BB0E94D9000E9490
S11301E07B0080E690E00E94BA008FEF93EDA0E3DD
S11301F081509040A040E1F700C0000081E00E94DF
S11302004D0015E00F2EFEE6EF2EF0E0FF2EF02D50
S1130210CAE8D0E00F2EF6E0AF2EF02D0F2EF5E851
S11302206F2EF0E07F2EF02D0F2EF9E0BF2EF02D73
S11302300F2EFFE78F2EF0E09F2EF02D0AE00F2EF9
S1130240F7E7CF2EF0E0DF2EF02D0E94E20082349B
S113025089F41BBB8FE798E3A1E081509040A04054
S1130260E1F700C0000081E00E944D00C7010E9438
S1130270BA00EBCF863441F40BBB81E00E944D0001
S1130280C6010E94BA00E1CF823541F4BBBA81E0D5
S11302900E944D00C4010E94BA00D7CF8C3441F4AF
S11302A0ABBA81E00E944D00C3010E94BA00CDCFD9
S11302B0833559F61BBA81E00E944D00CE010E949D
S10B02C0BA00C3CFF894FFCF8C
S11302C8202A2A57454C434F4D452A2A20004241AB
S11302D8434B5741524400464F52574152440052EF
S11302E849474854004C4546540053544F50000065
S9030000FC
